{
  "contractName": "TweetRegistry",
  "abi": [
    {
      "inputs": [
        {
          "name": "name",
          "type": "string"
        }
      ],
      "payable": false,
      "stateMutability": "nonpayable",
      "type": "constructor"
    },
    {
      "payable": true,
      "stateMutability": "payable",
      "type": "fallback"
    },
    {
      "constant": false,
      "inputs": [
        {
          "name": "name",
          "type": "string"
        }
      ],
      "name": "register",
      "outputs": [
        {
          "name": "",
          "type": "bool"
        }
      ],
      "payable": false,
      "stateMutability": "nonpayable",
      "type": "function"
    },
    {
      "constant": true,
      "inputs": [],
      "name": "getNumberOfAccounts",
      "outputs": [
        {
          "name": "numberOfAccounts",
          "type": "uint256"
        }
      ],
      "payable": false,
      "stateMutability": "view",
      "type": "function"
    },
    {
      "constant": true,
      "inputs": [
        {
          "name": "name",
          "type": "string"
        }
      ],
      "name": "getAddressOfName",
      "outputs": [
        {
          "name": "addr",
          "type": "address"
        }
      ],
      "payable": false,
      "stateMutability": "view",
      "type": "function"
    },
    {
      "constant": true,
      "inputs": [
        {
          "name": "addr",
          "type": "address"
        }
      ],
      "name": "getNameOfAddress",
      "outputs": [
        {
          "name": "name",
          "type": "string"
        }
      ],
      "payable": false,
      "stateMutability": "view",
      "type": "function"
    },
    {
      "constant": true,
      "inputs": [
        {
          "name": "addr",
          "type": "address"
        }
      ],
      "name": "getAccountOfAddress",
      "outputs": [
        {
          "name": "",
          "type": "address"
        },
        {
          "name": "",
          "type": "string"
        }
      ],
      "payable": false,
      "stateMutability": "view",
      "type": "function"
    },
    {
      "constant": true,
      "inputs": [
        {
          "name": "index",
          "type": "uint256"
        }
      ],
      "name": "getAccountById",
      "outputs": [
        {
          "name": "",
          "type": "address"
        },
        {
          "name": "",
          "type": "string"
        }
      ],
      "payable": false,
      "stateMutability": "view",
      "type": "function"
    },
    {
      "constant": true,
      "inputs": [
        {
          "name": "id",
          "type": "uint256"
        }
      ],
      "name": "getAddressOfId",
      "outputs": [
        {
          "name": "addr",
          "type": "address"
        }
      ],
      "payable": false,
      "stateMutability": "view",
      "type": "function"
    },
    {
      "constant": false,
      "inputs": [],
      "name": "unregister",
      "outputs": [
        {
          "name": "unregisteredAccountName",
          "type": "string"
        }
      ],
      "payable": false,
      "stateMutability": "nonpayable",
      "type": "function"
    },
    {
      "constant": false,
      "inputs": [],
      "name": "Donate",
      "outputs": [],
      "payable": true,
      "stateMutability": "payable",
      "type": "function"
    },
    {
      "constant": false,
      "inputs": [
        {
          "name": "to",
          "type": "address"
        },
        {
          "name": "amount",
          "type": "uint256"
        }
      ],
      "name": "adminRetrieveDonations",
      "outputs": [],
      "payable": false,
      "stateMutability": "nonpayable",
      "type": "function"
    },
    {
      "constant": false,
      "inputs": [],
      "name": "adminDeleteRegistry",
      "outputs": [],
      "payable": false,
      "stateMutability": "nonpayable",
      "type": "function"
    },
    {
      "constant": true,
      "inputs": [],
      "name": "getBalance",
      "outputs": [
        {
          "name": "",
          "type": "uint256"
        }
      ],
      "payable": false,
      "stateMutability": "view",
      "type": "function"
    }
  ],
  "bytecode": "0x606060405234156200001057600080fd5b60405162002a8938038062002a8983398101604052808051820191905050620000386200034b565b600033600460006101000a81548173ffffffffffffffffffffffffffffffffffffffff021916908373ffffffffffffffffffffffffffffffffffffffff1602179055506000600381905550336200008e6200038d565b808273ffffffffffffffffffffffffffffffffffffffff1673ffffffffffffffffffffffffffffffffffffffff168152602001915050604051809103906000f0801515620000db57600080fd5b90506000803373ffffffffffffffffffffffffffffffffffffffff1673ffffffffffffffffffffffffffffffffffffffff16815260200190815250828260000181905250600182604001901515908115158152505080826020019073ffffffffffffffffffffffffffffffffffffffff16908173ffffffffffffffffffffffffffffffffffffffff1681525050336002846040518082805190602001908083835b602083101515620001a357805182526020820191506020810190506020830392506200017c565b6001836020036101000a038019825116818451168082178552505050505050905001915050908152602001604051809103902060006101000a81548173ffffffffffffffffffffffffffffffffffffffff021916908373ffffffffffffffffffffffffffffffffffffffff1602179055503360016000600354815260200190815260200160002060006101000a81548173ffffffffffffffffffffffffffffffffffffffff021916908373ffffffffffffffffffffffffffffffffffffffff160217905550600360008154809291906001019190505550816000803373ffffffffffffffffffffffffffffffffffffffff1673ffffffffffffffffffffffffffffffffffffffff1681526020019081526020016000206000820151816000019080519060200190620002d79291906200039e565b5060208201518160010160006101000a81548173ffffffffffffffffffffffffffffffffffffffff021916908373ffffffffffffffffffffffffffffffffffffffff16021790555060408201518160010160146101000a81548160ff02191690831515021790555090505050505062000461565b6060604051908101604052806200036162000425565b8152602001600073ffffffffffffffffffffffffffffffffffffffff1681526020016000151581525090565b604051610961806200212883390190565b828054600181600116156101000203166002900490600052602060002090601f016020900481019282601f10620003e157805160ff191683800117855562000412565b8280016001018555821562000412579182015b8281111562000411578251825591602001919060010190620003f4565b5b50905062000421919062000439565b5090565b602060405190810160405280600081525090565b6200045e91905b808211156200045a57600081600090555060010162000440565b5090565b90565b611cb780620004716000396000f3006060604052600436106100ba576000357c0100000000000000000000000000000000000000000000000000000000900463ffffffff16806305aca141146100bc57806312065fe01461018b57806315379a72146101b4578063309e36ef146101f657806338ec6ba81461021f5780633af41dc2146102bc578063b11ebaf2146102d1578063b2dad25d146103b6578063d917deb514610468578063e79a198f14610472578063ec43eeb614610500578063f2c298be14610563575b005b34156100c757600080fd5b6100dd60048080359060200190919050506105d8565b604051808373ffffffffffffffffffffffffffffffffffffffff1673ffffffffffffffffffffffffffffffffffffffff16815260200180602001828103825283818151815260200191508051906020019080838360005b8381101561014f578082015181840152602081019050610134565b50505050905090810190601f16801561017c5780820380516001836020036101000a031916815260200191505b50935050505060405180910390f35b341561019657600080fd5b61019e610790565b6040518082815260200191505060405180910390f35b34156101bf57600080fd5b6101f4600480803573ffffffffffffffffffffffffffffffffffffffff1690602001909190803590602001909190505061080b565b005b341561020157600080fd5b6102096108ab565b6040518082815260200191505060405180910390f35b341561022a57600080fd5b61027a600480803590602001908201803590602001908080601f016020809104026020016040519081016040528093929190818152602001838380828437820191505050505050919050506108b5565b604051808273ffffffffffffffffffffffffffffffffffffffff1673ffffffffffffffffffffffffffffffffffffffff16815260200191505060405180910390f35b34156102c757600080fd5b6102cf61094a565b005b34156102dc57600080fd5b610308600480803573ffffffffffffffffffffffffffffffffffffffff169060200190919050506109e1565b604051808373ffffffffffffffffffffffffffffffffffffffff1673ffffffffffffffffffffffffffffffffffffffff16815260200180602001828103825283818151815260200191508051906020019080838360005b8381101561037a57808201518184015260208101905061035f565b50505050905090810190601f1680156103a75780820380516001836020036101000a031916815260200191505b50935050505060405180910390f35b34156103c157600080fd5b6103ed600480803573ffffffffffffffffffffffffffffffffffffffff16906020019091905050610b33565b6040518080602001828103825283818151815260200191508051906020019080838360005b8381101561042d578082015181840152602081019050610412565b50505050905090810190601f16801561045a5780820380516001836020036101000a031916815260200191505b509250505060405180910390f35b610470610c1c565b005b341561047d57600080fd5b610485610c1e565b6040518080602001828103825283818151815260200191508051906020019080838360005b838110156104c55780820151818401526020810190506104aa565b50505050905090810190601f1680156104f25780820380516001836020036101000a031916815260200191505b509250505060405180910390f35b341561050b57600080fd5b6105216004808035906020019091905050610dc3565b604051808273ffffffffffffffffffffffffffffffffffffffff1673ffffffffffffffffffffffffffffffffffffffff16815260200191505060405180910390f35b341561056e57600080fd5b6105be600480803590602001908201803590602001908080601f01602080910402602001604051908101604052809392919081815260200183838082843782019150505050505091905050610e00565b604051808215151515815260200191505060405180910390f35b60006105e261120d565b6000806001600086815260200190815260200160002060009054906101000a900473ffffffffffffffffffffffffffffffffffffffff1673ffffffffffffffffffffffffffffffffffffffff1673ffffffffffffffffffffffffffffffffffffffff16815260200190815260200160002060010160009054906101000a900473ffffffffffffffffffffffffffffffffffffffff166000806001600087815260200190815260200160002060009054906101000a900473ffffffffffffffffffffffffffffffffffffffff1673ffffffffffffffffffffffffffffffffffffffff1673ffffffffffffffffffffffffffffffffffffffff168152602001908152602001600020600001808054600181600116156101000203166002900480601f0160208091040260200160405190810160405280929190818152602001828054600181600116156101000203166002900480156107805780601f1061075557610100808354040283529160200191610780565b820191906000526020600020905b81548152906001019060200180831161076357829003601f168201915b5050505050905091509150915091565b6000600460009054906101000a900473ffffffffffffffffffffffffffffffffffffffff1673ffffffffffffffffffffffffffffffffffffffff163373ffffffffffffffffffffffffffffffffffffffff161415156107ee57600080fd5b3073ffffffffffffffffffffffffffffffffffffffff1631905090565b600460009054906101000a900473ffffffffffffffffffffffffffffffffffffffff1673ffffffffffffffffffffffffffffffffffffffff163373ffffffffffffffffffffffffffffffffffffffff1614151561086757600080fd5b8173ffffffffffffffffffffffffffffffffffffffff166108fc829081150290604051600060405180830381858888f1935050505015156108a757600080fd5b5050565b6000600354905090565b60006002826040518082805190602001908083835b6020831015156108ef57805182526020820191506020810190506020830392506108ca565b6001836020036101000a038019825116818451168082178552505050505050905001915050908152602001604051809103902060009054906101000a900473ffffffffffffffffffffffffffffffffffffffff169050919050565b600460009054906101000a900473ffffffffffffffffffffffffffffffffffffffff1673ffffffffffffffffffffffffffffffffffffffff163373ffffffffffffffffffffffffffffffffffffffff161415156109a657600080fd5b600460009054906101000a900473ffffffffffffffffffffffffffffffffffffffff1673ffffffffffffffffffffffffffffffffffffffff16ff5b60006109eb61120d565b6000808473ffffffffffffffffffffffffffffffffffffffff1673ffffffffffffffffffffffffffffffffffffffff16815260200190815260200160002060010160009054906101000a900473ffffffffffffffffffffffffffffffffffffffff166000808573ffffffffffffffffffffffffffffffffffffffff1673ffffffffffffffffffffffffffffffffffffffff168152602001908152602001600020600001808054600181600116156101000203166002900480601f016020809104026020016040519081016040528092919081815260200182805460018160011615610100020316600290048015610b235780601f10610af857610100808354040283529160200191610b23565b820191906000526020600020905b815481529060010190602001808311610b0657829003601f168201915b5050505050905091509150915091565b610b3b61120d565b6000808373ffffffffffffffffffffffffffffffffffffffff1673ffffffffffffffffffffffffffffffffffffffff1681526020019081526020016000206000018054600181600116156101000203166002900480601f016020809104026020016040519081016040528092919081815260200182805460018160011615610100020316600290048015610c105780601f10610be557610100808354040283529160200191610c10565b820191906000526020600020905b815481529060010190602001808311610bf357829003601f168201915b50505050509050919050565b565b610c2661120d565b60008060003373ffffffffffffffffffffffffffffffffffffffff1673ffffffffffffffffffffffffffffffffffffffff168152602001908152602001600020600001805460018160011615610100020316600290049050141515610c8a57600080fd5b6000803373ffffffffffffffffffffffffffffffffffffffff1673ffffffffffffffffffffffffffffffffffffffff1681526020019081526020016000206000018054600181600116156101000203166002900480601f016020809104026020016040519081016040528092919081815260200182805460018160011615610100020316600290048015610d5f5780601f10610d3457610100808354040283529160200191610d5f565b820191906000526020600020905b815481529060010190602001808311610d4257829003601f168201915b5050505050905060008060003373ffffffffffffffffffffffffffffffffffffffff1673ffffffffffffffffffffffffffffffffffffffff16815260200190815260200160002060010160146101000a81548160ff02191690831515021790555090565b60006001600083815260200190815260200160002060009054906101000a900473ffffffffffffffffffffffffffffffffffffffff169050919050565b6000610e0a611221565b6000806000803373ffffffffffffffffffffffffffffffffffffffff1673ffffffffffffffffffffffffffffffffffffffff168152602001908152602001600020600001805460018160011615610100020316600290049050141515610e6f57600080fd5b836040815111151515610e8157600080fd5b84600073ffffffffffffffffffffffffffffffffffffffff166002826040518082805190602001908083835b602083101515610ed25780518252602082019150602081019050602083039250610ead565b6001836020036101000a038019825116818451168082178552505050505050905001915050908152602001604051809103902060009054906101000a900473ffffffffffffffffffffffffffffffffffffffff1673ffffffffffffffffffffffffffffffffffffffff16141515610f4857600080fd5b33610f51611261565b808273ffffffffffffffffffffffffffffffffffffffff1673ffffffffffffffffffffffffffffffffffffffff168152602001915050604051809103906000f0801515610f9d57600080fd5b92506000803373ffffffffffffffffffffffffffffffffffffffff1673ffffffffffffffffffffffffffffffffffffffff16815260200190815250858460000181905250600184604001901515908115158152505082846020019073ffffffffffffffffffffffffffffffffffffffff16908173ffffffffffffffffffffffffffffffffffffffff1681525050336002876040518082805190602001908083835b602083101515611063578051825260208201915060208101905060208303925061103e565b6001836020036101000a038019825116818451168082178552505050505050905001915050908152602001604051809103902060006101000a81548173ffffffffffffffffffffffffffffffffffffffff021916908373ffffffffffffffffffffffffffffffffffffffff1602179055503360016000600354815260200190815260200160002060006101000a81548173ffffffffffffffffffffffffffffffffffffffff021916908373ffffffffffffffffffffffffffffffffffffffff160217905550600360008154809291906001019190505550836000803373ffffffffffffffffffffffffffffffffffffffff1673ffffffffffffffffffffffffffffffffffffffff1681526020019081526020016000206000820151816000019080519060200190611195929190611271565b5060208201518160010160006101000a81548173ffffffffffffffffffffffffffffffffffffffff021916908373ffffffffffffffffffffffffffffffffffffffff16021790555060408201518160010160146101000a81548160ff0219169083151502179055509050506001945050505050919050565b602060405190810160405280600081525090565b6060604051908101604052806112356112f1565b8152602001600073ffffffffffffffffffffffffffffffffffffffff1681526020016000151581525090565b6040516109618061132b83390190565b828054600181600116156101000203166002900490600052602060002090601f016020900481019282601f106112b257805160ff19168380011785556112e0565b828001600101855582156112e0579182015b828111156112df5782518255916020019190600101906112c4565b5b5090506112ed9190611305565b5090565b602060405190810160405280600081525090565b61132791905b8082111561132357600081600090555060010161130b565b5090565b9056006060604052341561000f57600080fd5b60405160208061096183398101604052808051906020019091905050600060018190555080600260006101000a81548173ffffffffffffffffffffffffffffffffffffffff021916908373ffffffffffffffffffffffffffffffffffffffff160217905550506108dd806100846000396000f300606060405260043610610099576000357c0100000000000000000000000000000000000000000000000000000000900463ffffffff1680630c4f65bd1461009b57806312065fe0146100f057806315379a72146101195780633e450fff1461015b578063ae978f0814610170578063c3ad5ecb1461020c578063ca7dc5b1146102af578063d917deb5146102d8578063fb46d4c5146102e2575b005b34156100a657600080fd5b6100ae6103ca565b604051808273ffffffffffffffffffffffffffffffffffffffff1673ffffffffffffffffffffffffffffffffffffffff16815260200191505060405180910390f35b34156100fb57600080fd5b6101036103f4565b6040518082815260200191505060405180910390f35b341561012457600080fd5b610159600480803573ffffffffffffffffffffffffffffffffffffffff16906020019091908035906020019091905050610413565b005b341561016657600080fd5b61016e6104b3565b005b341561017b57600080fd5b61018361054a565b6040518080602001848152602001838152602001828103825285818151815260200191508051906020019080838360005b838110156101cf5780820151818401526020810190506101b4565b50505050905090810190601f1680156101fc5780820380516001836020036101000a031916815260200191505b5094505050505060405180910390f35b341561021757600080fd5b61022d600480803590602001909190505061062f565b6040518080602001838152602001828103825284818151815260200191508051906020019080838360005b83811015610273578082015181840152602081019050610258565b50505050905090810190601f1680156102a05780820380516001836020036101000a031916815260200191505b50935050505060405180910390f35b34156102ba57600080fd5b6102c2610706565b6040518082815260200191505060405180910390f35b6102e0610710565b005b34156102ed57600080fd5b61033d600480803590602001908201803590602001908080601f01602080910402602001604051908101604052809392919081815260200183838082843782019150505050505091905050610712565b604051808415151515815260200183815260200180602001828103825283818151815260200191508051906020019080838360005b8381101561038d578082015181840152602081019050610372565b50505050905090810190601f1680156103ba5780820380516001836020036101000a031916815260200191505b5094505050505060405180910390f35b6000600260009054906101000a900473ffffffffffffffffffffffffffffffffffffffff16905090565b60003073ffffffffffffffffffffffffffffffffffffffff1631905090565b600260009054906101000a900473ffffffffffffffffffffffffffffffffffffffff1673ffffffffffffffffffffffffffffffffffffffff163373ffffffffffffffffffffffffffffffffffffffff1614151561046f57600080fd5b8173ffffffffffffffffffffffffffffffffffffffff166108fc829081150290604051600060405180830381858888f1935050505015156104af57600080fd5b5050565b600260009054906101000a900473ffffffffffffffffffffffffffffffffffffffff1673ffffffffffffffffffffffffffffffffffffffff163373ffffffffffffffffffffffffffffffffffffffff1614151561050f57600080fd5b600260009054906101000a900473ffffffffffffffffffffffffffffffffffffffff1673ffffffffffffffffffffffffffffffffffffffff16ff5b6105526107f8565b600080600080600180540381526020019081526020016000206001018054600181600116156101000203166002900480601f0160208091040260200160405190810160405280929190818152602001828054600181600116156101000203166002900480156106025780601f106105d757610100808354040283529160200191610602565b820191906000526020600020905b8154815290600101906020018083116105e557829003601f168201915b50505050509250600080600180540381526020019081526020016000206000015491506001549050909192565b6106376107f8565b60008060008481526020019081526020016000206001018054600181600116156101000203166002900480601f0160208091040260200160405190810160405280929190818152602001828054600181600116156101000203166002900480156106e25780601f106106b7576101008083540402835291602001916106e2565b820191906000526020600020905b8154815290600101906020018083116106c557829003601f168201915b50505050509150600080848152602001908152602001600020600001549050915091565b6000600154905090565b565b60008061071d6107f8565b600260009054906101000a900473ffffffffffffffffffffffffffffffffffffffff1673ffffffffffffffffffffffffffffffffffffffff163373ffffffffffffffffffffffffffffffffffffffff1614151561077957600080fd5b8360a081511115151561078b57600080fd5b4260008060015481526020019081526020016000206000018190555084600080600154815260200190815260200160002060010190805190602001906107d292919061080c565b506001600081548092919060010191905055506001805486935093509350509193909250565b602060405190810160405280600081525090565b828054600181600116156101000203166002900490600052602060002090601f016020900481019282601f1061084d57805160ff191683800117855561087b565b8280016001018555821561087b579182015b8281111561087a57825182559160200191906001019061085f565b5b509050610888919061088c565b5090565b6108ae91905b808211156108aa576000816000905550600101610892565b5090565b905600a165627a7a72305820f934ebd5ad638e42ec0fdd3ecd9bb2bb486043b2d5971dca4025b1b3a7b63e730029a165627a7a72305820060279d864e3867d457121bdf78071c3dfb855b8e92d6eb2be54f499117811e800296060604052341561000f57600080fd5b60405160208061096183398101604052808051906020019091905050600060018190555080600260006101000a81548173ffffffffffffffffffffffffffffffffffffffff021916908373ffffffffffffffffffffffffffffffffffffffff160217905550506108dd806100846000396000f300606060405260043610610099576000357c0100000000000000000000000000000000000000000000000000000000900463ffffffff1680630c4f65bd1461009b57806312065fe0146100f057806315379a72146101195780633e450fff1461015b578063ae978f0814610170578063c3ad5ecb1461020c578063ca7dc5b1146102af578063d917deb5146102d8578063fb46d4c5146102e2575b005b34156100a657600080fd5b6100ae6103ca565b604051808273ffffffffffffffffffffffffffffffffffffffff1673ffffffffffffffffffffffffffffffffffffffff16815260200191505060405180910390f35b34156100fb57600080fd5b6101036103f4565b6040518082815260200191505060405180910390f35b341561012457600080fd5b610159600480803573ffffffffffffffffffffffffffffffffffffffff16906020019091908035906020019091905050610413565b005b341561016657600080fd5b61016e6104b3565b005b341561017b57600080fd5b61018361054a565b6040518080602001848152602001838152602001828103825285818151815260200191508051906020019080838360005b838110156101cf5780820151818401526020810190506101b4565b50505050905090810190601f1680156101fc5780820380516001836020036101000a031916815260200191505b5094505050505060405180910390f35b341561021757600080fd5b61022d600480803590602001909190505061062f565b6040518080602001838152602001828103825284818151815260200191508051906020019080838360005b83811015610273578082015181840152602081019050610258565b50505050905090810190601f1680156102a05780820380516001836020036101000a031916815260200191505b50935050505060405180910390f35b34156102ba57600080fd5b6102c2610706565b6040518082815260200191505060405180910390f35b6102e0610710565b005b34156102ed57600080fd5b61033d600480803590602001908201803590602001908080601f01602080910402602001604051908101604052809392919081815260200183838082843782019150505050505091905050610712565b604051808415151515815260200183815260200180602001828103825283818151815260200191508051906020019080838360005b8381101561038d578082015181840152602081019050610372565b50505050905090810190601f1680156103ba5780820380516001836020036101000a031916815260200191505b5094505050505060405180910390f35b6000600260009054906101000a900473ffffffffffffffffffffffffffffffffffffffff16905090565b60003073ffffffffffffffffffffffffffffffffffffffff1631905090565b600260009054906101000a900473ffffffffffffffffffffffffffffffffffffffff1673ffffffffffffffffffffffffffffffffffffffff163373ffffffffffffffffffffffffffffffffffffffff1614151561046f57600080fd5b8173ffffffffffffffffffffffffffffffffffffffff166108fc829081150290604051600060405180830381858888f1935050505015156104af57600080fd5b5050565b600260009054906101000a900473ffffffffffffffffffffffffffffffffffffffff1673ffffffffffffffffffffffffffffffffffffffff163373ffffffffffffffffffffffffffffffffffffffff1614151561050f57600080fd5b600260009054906101000a900473ffffffffffffffffffffffffffffffffffffffff1673ffffffffffffffffffffffffffffffffffffffff16ff5b6105526107f8565b600080600080600180540381526020019081526020016000206001018054600181600116156101000203166002900480601f0160208091040260200160405190810160405280929190818152602001828054600181600116156101000203166002900480156106025780601f106105d757610100808354040283529160200191610602565b820191906000526020600020905b8154815290600101906020018083116105e557829003601f168201915b50505050509250600080600180540381526020019081526020016000206000015491506001549050909192565b6106376107f8565b60008060008481526020019081526020016000206001018054600181600116156101000203166002900480601f0160208091040260200160405190810160405280929190818152602001828054600181600116156101000203166002900480156106e25780601f106106b7576101008083540402835291602001916106e2565b820191906000526020600020905b8154815290600101906020018083116106c557829003601f168201915b50505050509150600080848152602001908152602001600020600001549050915091565b6000600154905090565b565b60008061071d6107f8565b600260009054906101000a900473ffffffffffffffffffffffffffffffffffffffff1673ffffffffffffffffffffffffffffffffffffffff163373ffffffffffffffffffffffffffffffffffffffff1614151561077957600080fd5b8360a081511115151561078b57600080fd5b4260008060015481526020019081526020016000206000018190555084600080600154815260200190815260200160002060010190805190602001906107d292919061080c565b506001600081548092919060010191905055506001805486935093509350509193909250565b602060405190810160405280600081525090565b828054600181600116156101000203166002900490600052602060002090601f016020900481019282601f1061084d57805160ff191683800117855561087b565b8280016001018555821561087b579182015b8281111561087a57825182559160200191906001019061085f565b5b509050610888919061088c565b5090565b6108ae91905b808211156108aa576000816000905550600101610892565b5090565b905600a165627a7a72305820f934ebd5ad638e42ec0fdd3ecd9bb2bb486043b2d5971dca4025b1b3a7b63e730029",
  "source": "/*\ndecentralized microblogging \nCopyright (C) 2015 Jahn Bertsch\n\nThis program is free software: you can redistribute it and/or modify\nit under the terms of the GNU General Public License as published by\nthe Free Software Foundation in version 3.\n\nThis program is distributed in the hope that it will be useful,\nbut WITHOUT ANY WARRANTY; without even the implied warranty of\nMERCHANTABILITY or FITNESS FOR A PARTICULAR PURPOSE.  See the\nGNU General Public License for more details.\n\nYou should have received a copy of the GNU General Public License\nalong with this program.  If not, see <http://www.gnu.org/licenses/>.\n*/\n\n// \"class\" TweetRegistry\npragma solidity ^0.4.4;\nimport \"./TweetAccount.sol\";\ncontract TweetRegistry {\n\t\tstruct AccountInfo{ \n\t\tstring name;\n\t\taddress contractAddress;\n\t\tbool isActive;\n\t}\n\t// mappings to look up account names, account ids and addresses\n\tmapping (address => AccountInfo) _addressToAccountInfo;\n\tmapping (uint => address) _accountIdToAccountAddress;\n\tmapping (string => address) _accountNameToAddress;\n\n\n\t\n\t// might be interesting to see how many people use the system\n\tuint _numberOfAccounts;\n\t\n\t// owner\n\taddress _registryAdmin;\n\t\n\t// allowed to administrate accounts only, not everything\n\t// address _accountAdmin;\n\t\n\t// if a newer version of this registry is available, force users to use it\n\t//bool _registrationDisabled;\n\n\tfunction TweetRegistry(string name) {\n\t\t_registryAdmin = msg.sender;\n\t\t// _accountAdmin = msg.sender; // can be changed later\n\t\t_numberOfAccounts = 0;\n\t//\t_registrationDisabled = false;\n\t\t \t AccountInfo memory newAccount;\n\t\t\t TweetAccount newTweep =new TweetAccount(msg.sender);\n\t\t\t _addressToAccountInfo[msg.sender];\n            newAccount.name =name ;\n            newAccount.isActive =true ;\n\n            newAccount.contractAddress=newTweep;\n        \t_accountNameToAddress[name] = msg.sender ;\n\t\t\t_accountIdToAccountAddress[_numberOfAccounts] = msg.sender ;\n\t\t\t_numberOfAccounts++;\n\n            _addressToAccountInfo[msg.sender]=newAccount;\n\t\t\t\n\t}\n    // modifier RegistrationDisabled(){\n\t// \trequire(!_registrationDisabled);\n    //     _;\n    // }\n    modifier IsRegistered(){\n\t\trequire(bytes(_addressToAccountInfo[msg.sender].name).length == 0);\n        _;\n    }\n    modifier IsTaken(string name){\n\t\trequire(_accountNameToAddress[name] == address(0));\n        _;\n    }\n    modifier ValidName(string name){\n\t\trequire(bytes(name).length <= 64);\n        _;\n    }\n    modifier IsAdmin(){\n\t\trequire(msg.sender == _registryAdmin);\n        _;\n    }\n    // modifier IsAccountAdmin(){\n\t// \trequire(msg.sender == _accountAdmin);\n    //     _;\n    // }\n\n\tfunction register(string name) public/* RegistrationDisabled */ IsRegistered ValidName(name) IsTaken(name) returns (bool) {\n\t\n \t\t\t  AccountInfo memory newAccount;\n\t\t\t TweetAccount newTweep =new TweetAccount(msg.sender);\n\t\t\t _addressToAccountInfo[msg.sender];\n            newAccount.name =name ;\n            newAccount.isActive =true ;\n            newAccount.contractAddress=newTweep;\n        \t_accountNameToAddress[name] = msg.sender ;\n\t\t\t_accountIdToAccountAddress[_numberOfAccounts] = msg.sender ;\n\t\t\t_numberOfAccounts++;\n\n            _addressToAccountInfo[msg.sender]=newAccount;\n\t\t\t\n\t\t\treturn true; // success\n\t\t}\n\t\n\t\n\tfunction getNumberOfAccounts()public constant returns (uint numberOfAccounts) {\n\t\tnumberOfAccounts = _numberOfAccounts;\n\t}\n\n\tfunction getAddressOfName(string name)public constant returns (address addr) {\n\t\taddr = _accountNameToAddress[name];\n\t}\n\n\tfunction getNameOfAddress(address addr)public constant returns (string name) {\n\t\tname = _addressToAccountInfo[addr].name;\n\t}\n\tfunction getAccountOfAddress(address addr) public constant returns (address , string ) {\n\t\treturn (_addressToAccountInfo[addr].contractAddress,_addressToAccountInfo[addr].name);\n\t}\n\tfunction getAccountById(uint index) public constant returns (address , string ) {\n \t\treturn (_addressToAccountInfo[ _accountIdToAccountAddress[index]].contractAddress,_addressToAccountInfo[ _accountIdToAccountAddress[index]].name);\n\t}\n\t\n\tfunction getAddressOfId(uint id) public constant returns (address addr) {\n\t\taddr = _accountIdToAccountAddress[id];\n\t}\n\n\tfunction unregister() public IsRegistered returns (string unregisteredAccountName) {\n\t\tunregisteredAccountName = _addressToAccountInfo[msg.sender].name;\n \t\t_addressToAccountInfo[msg.sender].isActive = false;\n \t\t// _accountIdToAccountAddress is never deleted on purpose\n\t}\n\t\n\t// function adminUnregister(string name) public IsAdmin IsAccountAdmin {\n\t// \taddress addr = _accountNameToAddress[name];\n\t// \t\t_addressToAccountInfo[addr].name = \"\";\n\t// \t\t_accountNameToAddress[name] = address(0);\n\t// \t\t// _accountIdToAccountAddress is never deleted on purpose\n\t// }\n\t\n\t// function adminSetRegistrationDisabled(bool registrationDisabled) public IsAdmin  {\n\t// \t// currently, the code of the registry can not be updated once it is\n\t// \t// deployed. if a newer version of the registry is available, account\n\t// \t// registration can be disabled\n\t// \t\t\t_registrationDisabled = registrationDisabled;\n\n\t// }\n\t\n\t// function adminSetAccountAdministrator(address accountAdmin)  public IsAdmin {\n\t// \t\t\t_accountAdmin = accountAdmin;\n\n\t// }\n\t// donate to the admin \n\t\tfunction Donate() public payable {\n\n\t}\n\n\t\n\tfunction adminRetrieveDonations(address to , uint amount) public IsAdmin {\n\t\t\tto.transfer(amount);\n\t\t\n\t}\n\t\t\t\n\tfunction adminDeleteRegistry() public IsAdmin {\n\t\t\tselfdestruct(_registryAdmin); // this is a predefined function, it deletes the contract and returns all funds to the admin's address\n\t\t\n\t}\n\t\t\tfunction () public payable {\n\n\t}\n\t\tfunction getBalance() public IsAdmin constant returns (uint ) {\n\t\treturn this.balance;\n\t}\n}",
  "sourcePath": "/home/eherrawy/bootCamp/eth-tweet/contracts/TweetRegistry.sol",
  "compiler": {
    "name": "solc",
    "version": "0.4.19+commit.c4cbbb05.Emscripten.clang"
  },
  "schemaVersion": "2.0.0",
  "updatedAt": "2018-03-28T13:25:13.917Z"
}