{
  "contractName": "TweetRegistry",
  "abi": [
    {
      "inputs": [
        {
          "name": "name",
          "type": "string"
        }
      ],
      "payable": false,
      "stateMutability": "nonpayable",
      "type": "constructor"
    },
    {
      "payable": true,
      "stateMutability": "payable",
      "type": "fallback"
    },
    {
      "constant": false,
      "inputs": [
        {
          "name": "name",
          "type": "string"
        }
      ],
      "name": "register",
      "outputs": [
        {
          "name": "result",
          "type": "int256"
        }
      ],
      "payable": false,
      "stateMutability": "nonpayable",
      "type": "function"
    },
    {
      "constant": true,
      "inputs": [],
      "name": "getNumberOfAccounts",
      "outputs": [
        {
          "name": "numberOfAccounts",
          "type": "uint256"
        }
      ],
      "payable": false,
      "stateMutability": "view",
      "type": "function"
    },
    {
      "constant": true,
      "inputs": [
        {
          "name": "name",
          "type": "string"
        }
      ],
      "name": "getAddressOfName",
      "outputs": [
        {
          "name": "addr",
          "type": "address"
        }
      ],
      "payable": false,
      "stateMutability": "view",
      "type": "function"
    },
    {
      "constant": true,
      "inputs": [
        {
          "name": "addr",
          "type": "address"
        }
      ],
      "name": "getNameOfAddress",
      "outputs": [
        {
          "name": "name",
          "type": "string"
        }
      ],
      "payable": false,
      "stateMutability": "view",
      "type": "function"
    },
    {
      "constant": true,
      "inputs": [
        {
          "name": "addr",
          "type": "address"
        }
      ],
      "name": "getAccountOfAddress",
      "outputs": [
        {
          "name": "",
          "type": "address"
        },
        {
          "name": "",
          "type": "string"
        }
      ],
      "payable": false,
      "stateMutability": "view",
      "type": "function"
    },
    {
      "constant": true,
      "inputs": [
        {
          "name": "id",
          "type": "uint256"
        }
      ],
      "name": "getAddressOfId",
      "outputs": [
        {
          "name": "addr",
          "type": "address"
        }
      ],
      "payable": false,
      "stateMutability": "view",
      "type": "function"
    },
    {
      "constant": false,
      "inputs": [],
      "name": "unregister",
      "outputs": [
        {
          "name": "unregisteredAccountName",
          "type": "string"
        }
      ],
      "payable": false,
      "stateMutability": "nonpayable",
      "type": "function"
    },
    {
      "constant": false,
      "inputs": [
        {
          "name": "name",
          "type": "string"
        }
      ],
      "name": "adminUnregister",
      "outputs": [],
      "payable": false,
      "stateMutability": "nonpayable",
      "type": "function"
    },
    {
      "constant": false,
      "inputs": [
        {
          "name": "registrationDisabled",
          "type": "bool"
        }
      ],
      "name": "adminSetRegistrationDisabled",
      "outputs": [],
      "payable": false,
      "stateMutability": "nonpayable",
      "type": "function"
    },
    {
      "constant": false,
      "inputs": [
        {
          "name": "accountAdmin",
          "type": "address"
        }
      ],
      "name": "adminSetAccountAdministrator",
      "outputs": [],
      "payable": false,
      "stateMutability": "nonpayable",
      "type": "function"
    },
    {
      "constant": false,
      "inputs": [],
      "name": "Donate",
      "outputs": [],
      "payable": true,
      "stateMutability": "payable",
      "type": "function"
    },
    {
      "constant": false,
      "inputs": [
        {
          "name": "to",
          "type": "address"
        },
        {
          "name": "amount",
          "type": "uint256"
        }
      ],
      "name": "adminRetrieveDonations",
      "outputs": [],
      "payable": false,
      "stateMutability": "nonpayable",
      "type": "function"
    },
    {
      "constant": false,
      "inputs": [],
      "name": "adminDeleteRegistry",
      "outputs": [],
      "payable": false,
      "stateMutability": "nonpayable",
      "type": "function"
    },
    {
      "constant": true,
      "inputs": [],
      "name": "getBalance",
      "outputs": [
        {
          "name": "",
          "type": "uint256"
        }
      ],
      "payable": false,
      "stateMutability": "view",
      "type": "function"
    }
  ],
  "bytecode": "0x606060405234156200001057600080fd5b60405162002c6d38038062002c6d833981016040528080518201919050506200003862000376565b600033600460006101000a81548173ffffffffffffffffffffffffffffffffffffffff021916908373ffffffffffffffffffffffffffffffffffffffff16021790555033600560006101000a81548173ffffffffffffffffffffffffffffffffffffffff021916908373ffffffffffffffffffffffffffffffffffffffff16021790555060006003819055506000600560146101000a81548160ff02191690831515021790555033620000ea620003ae565b808273ffffffffffffffffffffffffffffffffffffffff1673ffffffffffffffffffffffffffffffffffffffff168152602001915050604051809103906000f08015156200013757600080fd5b90506000803373ffffffffffffffffffffffffffffffffffffffff1673ffffffffffffffffffffffffffffffffffffffff1681526020019081525082826000018190525080826020019073ffffffffffffffffffffffffffffffffffffffff16908173ffffffffffffffffffffffffffffffffffffffff1681525050336002846040518082805190602001908083835b602083101515620001ee5780518252602082019150602081019050602083039250620001c7565b6001836020036101000a038019825116818451168082178552505050505050905001915050908152602001604051809103902060006101000a81548173ffffffffffffffffffffffffffffffffffffffff021916908373ffffffffffffffffffffffffffffffffffffffff1602179055503360016000600354815260200190815260200160002060006101000a81548173ffffffffffffffffffffffffffffffffffffffff021916908373ffffffffffffffffffffffffffffffffffffffff160217905550600360008154809291906001019190505550816000803373ffffffffffffffffffffffffffffffffffffffff1673ffffffffffffffffffffffffffffffffffffffff168152602001908152602001600020600082015181600001908051906020019062000322929190620003bf565b5060208201518160010160006101000a81548173ffffffffffffffffffffffffffffffffffffffff021916908373ffffffffffffffffffffffffffffffffffffffff16021790555090505050505062000482565b60408051908101604052806200038b62000446565b8152602001600073ffffffffffffffffffffffffffffffffffffffff1681525090565b6040516108d8806200239583390190565b828054600181600116156101000203166002900490600052602060002090601f016020900481019282601f106200040257805160ff191683800117855562000433565b8280016001018555821562000433579182015b828111156200043257825182559160200191906001019062000415565b5b5090506200044291906200045a565b5090565b602060405190810160405280600081525090565b6200047f91905b808211156200047b57600081600090555060010162000461565b5090565b90565b611f0380620004926000396000f3006060604052600436106100d0576000357c0100000000000000000000000000000000000000000000000000000000900463ffffffff1680630cc04b55146100d257806312065fe01461012f57806315379a7214610158578063309e36ef1461019a57806338ec6ba8146101c35780633af41dc21461026057806349f0c90d146102755780639b6d86d6146102ae578063b11ebaf2146102d3578063b2dad25d146103b8578063d917deb51461046a578063e79a198f14610474578063ec43eeb614610502578063f2c298be14610565575b005b34156100dd57600080fd5b61012d600480803590602001908201803590602001908080601f016020809104026020016040519081016040528093929190818152602001838380828437820191505050505050919050506105d6565b005b341561013a57600080fd5b610142610833565b6040518082815260200191505060405180910390f35b341561016357600080fd5b610198600480803573ffffffffffffffffffffffffffffffffffffffff169060200190919080359060200190919050506108ae565b005b34156101a557600080fd5b6101ad61094e565b6040518082815260200191505060405180910390f35b34156101ce57600080fd5b61021e600480803590602001908201803590602001908080601f01602080910402602001604051908101604052809392919081815260200183838082843782019150505050505091905050610958565b604051808273ffffffffffffffffffffffffffffffffffffffff1673ffffffffffffffffffffffffffffffffffffffff16815260200191505060405180910390f35b341561026b57600080fd5b6102736109ed565b005b341561028057600080fd5b6102ac600480803573ffffffffffffffffffffffffffffffffffffffff16906020019091905050610a84565b005b34156102b957600080fd5b6102d160048080351515906020019091905050610b24565b005b34156102de57600080fd5b61030a600480803573ffffffffffffffffffffffffffffffffffffffff16906020019091905050610b9d565b604051808373ffffffffffffffffffffffffffffffffffffffff1673ffffffffffffffffffffffffffffffffffffffff16815260200180602001828103825283818151815260200191508051906020019080838360005b8381101561037c578082015181840152602081019050610361565b50505050905090810190601f1680156103a95780820380516001836020036101000a031916815260200191505b50935050505060405180910390f35b34156103c357600080fd5b6103ef600480803573ffffffffffffffffffffffffffffffffffffffff16906020019091905050610cef565b6040518080602001828103825283818151815260200191508051906020019080838360005b8381101561042f578082015181840152602081019050610414565b50505050905090810190601f16801561045c5780820380516001836020036101000a031916815260200191505b509250505060405180910390f35b610472610dd8565b005b341561047f57600080fd5b610487610dda565b6040518080602001828103825283818151815260200191508051906020019080838360005b838110156104c75780820151818401526020810190506104ac565b50505050905090810190601f1680156104f45780820380516001836020036101000a031916815260200191505b509250505060405180910390f35b341561050d57600080fd5b6105236004808035906020019091905050611036565b604051808273ffffffffffffffffffffffffffffffffffffffff1673ffffffffffffffffffffffffffffffffffffffff16815260200191505060405180910390f35b341561057057600080fd5b6105c0600480803590602001908201803590602001908080601f01602080910402602001604051908101604052809392919081815260200183838082843782019150505050505091905050611073565b6040518082815260200191505060405180910390f35b6000600460009054906101000a900473ffffffffffffffffffffffffffffffffffffffff1673ffffffffffffffffffffffffffffffffffffffff163373ffffffffffffffffffffffffffffffffffffffff1614151561063457600080fd5b600560009054906101000a900473ffffffffffffffffffffffffffffffffffffffff1673ffffffffffffffffffffffffffffffffffffffff163373ffffffffffffffffffffffffffffffffffffffff1614151561069057600080fd5b6002826040518082805190602001908083835b6020831015156106c857805182526020820191506020810190506020830392506106a3565b6001836020036101000a038019825116818451168082178552505050505050905001915050908152602001604051809103902060009054906101000a900473ffffffffffffffffffffffffffffffffffffffff16905060206040519081016040528060008152506000808373ffffffffffffffffffffffffffffffffffffffff1673ffffffffffffffffffffffffffffffffffffffff168152602001908152602001600020600001908051906020019061078392919061146c565b5060006002836040518082805190602001908083835b6020831015156107be5780518252602082019150602081019050602083039250610799565b6001836020036101000a038019825116818451168082178552505050505050905001915050908152602001604051809103902060006101000a81548173ffffffffffffffffffffffffffffffffffffffff021916908373ffffffffffffffffffffffffffffffffffffffff1602179055505050565b6000600460009054906101000a900473ffffffffffffffffffffffffffffffffffffffff1673ffffffffffffffffffffffffffffffffffffffff163373ffffffffffffffffffffffffffffffffffffffff1614151561089157600080fd5b3073ffffffffffffffffffffffffffffffffffffffff1631905090565b600460009054906101000a900473ffffffffffffffffffffffffffffffffffffffff1673ffffffffffffffffffffffffffffffffffffffff163373ffffffffffffffffffffffffffffffffffffffff1614151561090a57600080fd5b8173ffffffffffffffffffffffffffffffffffffffff166108fc829081150290604051600060405180830381858888f19350505050151561094a57600080fd5b5050565b6000600354905090565b60006002826040518082805190602001908083835b602083101515610992578051825260208201915060208101905060208303925061096d565b6001836020036101000a038019825116818451168082178552505050505050905001915050908152602001604051809103902060009054906101000a900473ffffffffffffffffffffffffffffffffffffffff169050919050565b600460009054906101000a900473ffffffffffffffffffffffffffffffffffffffff1673ffffffffffffffffffffffffffffffffffffffff163373ffffffffffffffffffffffffffffffffffffffff16141515610a4957600080fd5b600460009054906101000a900473ffffffffffffffffffffffffffffffffffffffff1673ffffffffffffffffffffffffffffffffffffffff16ff5b600460009054906101000a900473ffffffffffffffffffffffffffffffffffffffff1673ffffffffffffffffffffffffffffffffffffffff163373ffffffffffffffffffffffffffffffffffffffff16141515610ae057600080fd5b80600560006101000a81548173ffffffffffffffffffffffffffffffffffffffff021916908373ffffffffffffffffffffffffffffffffffffffff16021790555050565b600460009054906101000a900473ffffffffffffffffffffffffffffffffffffffff1673ffffffffffffffffffffffffffffffffffffffff163373ffffffffffffffffffffffffffffffffffffffff16141515610b8057600080fd5b80600560146101000a81548160ff02191690831515021790555050565b6000610ba76114ec565b6000808473ffffffffffffffffffffffffffffffffffffffff1673ffffffffffffffffffffffffffffffffffffffff16815260200190815260200160002060010160009054906101000a900473ffffffffffffffffffffffffffffffffffffffff166000808573ffffffffffffffffffffffffffffffffffffffff1673ffffffffffffffffffffffffffffffffffffffff168152602001908152602001600020600001808054600181600116156101000203166002900480601f016020809104026020016040519081016040528092919081815260200182805460018160011615610100020316600290048015610cdf5780601f10610cb457610100808354040283529160200191610cdf565b820191906000526020600020905b815481529060010190602001808311610cc257829003601f168201915b5050505050905091509150915091565b610cf76114ec565b6000808373ffffffffffffffffffffffffffffffffffffffff1673ffffffffffffffffffffffffffffffffffffffff1681526020019081526020016000206000018054600181600116156101000203166002900480601f016020809104026020016040519081016040528092919081815260200182805460018160011615610100020316600290048015610dcc5780601f10610da157610100808354040283529160200191610dcc565b820191906000526020600020905b815481529060010190602001808311610daf57829003601f168201915b50505050509050919050565b565b610de26114ec565b60008060003373ffffffffffffffffffffffffffffffffffffffff1673ffffffffffffffffffffffffffffffffffffffff168152602001908152602001600020600001805460018160011615610100020316600290049050141515610e4657600080fd5b6000803373ffffffffffffffffffffffffffffffffffffffff1673ffffffffffffffffffffffffffffffffffffffff1681526020019081526020016000206000018054600181600116156101000203166002900480601f016020809104026020016040519081016040528092919081815260200182805460018160011615610100020316600290048015610f1b5780601f10610ef057610100808354040283529160200191610f1b565b820191906000526020600020905b815481529060010190602001808311610efe57829003601f168201915b5050505050905060206040519081016040528060008152506000803373ffffffffffffffffffffffffffffffffffffffff1673ffffffffffffffffffffffffffffffffffffffff1681526020019081526020016000206000019080519060200190610f8792919061146c565b5060006002826040518082805190602001908083835b602083101515610fc25780518252602082019150602081019050602083039250610f9d565b6001836020036101000a038019825116818451168082178552505050505050905001915050908152602001604051809103902060006101000a81548173ffffffffffffffffffffffffffffffffffffffff021916908373ffffffffffffffffffffffffffffffffffffffff16021790555090565b60006001600083815260200190815260200160002060009054906101000a900473ffffffffffffffffffffffffffffffffffffffff169050919050565b600061107d611500565b6000600560149054906101000a900460ff1615151561109b57600080fd5b60008060003373ffffffffffffffffffffffffffffffffffffffff1673ffffffffffffffffffffffffffffffffffffffff1681526020019081526020016000206000018054600181600116156101000203166002900490501415156110ff57600080fd5b83604081511115151561111157600080fd5b84600073ffffffffffffffffffffffffffffffffffffffff166002826040518082805190602001908083835b602083101515611162578051825260208201915060208101905060208303925061113d565b6001836020036101000a038019825116818451168082178552505050505050905001915050908152602001604051809103902060009054906101000a900473ffffffffffffffffffffffffffffffffffffffff1673ffffffffffffffffffffffffffffffffffffffff161415156111d857600080fd5b336111e1611536565b808273ffffffffffffffffffffffffffffffffffffffff1673ffffffffffffffffffffffffffffffffffffffff168152602001915050604051809103906000f080151561122d57600080fd5b92506000803373ffffffffffffffffffffffffffffffffffffffff1673ffffffffffffffffffffffffffffffffffffffff1681526020019081525085846000018190525082846020019073ffffffffffffffffffffffffffffffffffffffff16908173ffffffffffffffffffffffffffffffffffffffff1681525050336002876040518082805190602001908083835b6020831015156112e257805182526020820191506020810190506020830392506112bd565b6001836020036101000a038019825116818451168082178552505050505050905001915050908152602001604051809103902060006101000a81548173ffffffffffffffffffffffffffffffffffffffff021916908373ffffffffffffffffffffffffffffffffffffffff1602179055503360016000600354815260200190815260200160002060006101000a81548173ffffffffffffffffffffffffffffffffffffffff021916908373ffffffffffffffffffffffffffffffffffffffff160217905550600360008154809291906001019190505550836000803373ffffffffffffffffffffffffffffffffffffffff1673ffffffffffffffffffffffffffffffffffffffff1681526020019081526020016000206000820151816000019080519060200190611414929190611546565b5060208201518160010160006101000a81548173ffffffffffffffffffffffffffffffffffffffff021916908373ffffffffffffffffffffffffffffffffffffffff1602179055509050506000945050505050919050565b828054600181600116156101000203166002900490600052602060002090601f016020900481019282601f106114ad57805160ff19168380011785556114db565b828001600101855582156114db579182015b828111156114da5782518255916020019190600101906114bf565b5b5090506114e891906115c6565b5090565b602060405190810160405280600081525090565b60408051908101604052806115136115eb565b8152602001600073ffffffffffffffffffffffffffffffffffffffff1681525090565b6040516108d88061160083390190565b828054600181600116156101000203166002900490600052602060002090601f016020900481019282601f1061158757805160ff19168380011785556115b5565b828001600101855582156115b5579182015b828111156115b4578251825591602001919060010190611599565b5b5090506115c291906115c6565b5090565b6115e891905b808211156115e45760008160009055506001016115cc565b5090565b90565b60206040519081016040528060008152509056006060604052341561000f57600080fd5b6040516020806108d883398101604052808051906020019091905050600060018190555080600260006101000a81548173ffffffffffffffffffffffffffffffffffffffff021916908373ffffffffffffffffffffffffffffffffffffffff16021790555050610854806100846000396000f300606060405260043610610099576000357c0100000000000000000000000000000000000000000000000000000000900463ffffffff1680630c4f65bd1461009b57806312065fe0146100f057806315379a72146101195780633e450fff1461015b578063ae978f0814610170578063c3ad5ecb1461020c578063ca7dc5b1146102af578063d917deb5146102d8578063fb46d4c5146102e2575b005b34156100a657600080fd5b6100ae610353565b604051808273ffffffffffffffffffffffffffffffffffffffff1673ffffffffffffffffffffffffffffffffffffffff16815260200191505060405180910390f35b34156100fb57600080fd5b61010361037d565b6040518082815260200191505060405180910390f35b341561012457600080fd5b610159600480803573ffffffffffffffffffffffffffffffffffffffff1690602001909190803590602001909190505061039c565b005b341561016657600080fd5b61016e61043c565b005b341561017b57600080fd5b6101836104d3565b6040518080602001848152602001838152602001828103825285818151815260200191508051906020019080838360005b838110156101cf5780820151818401526020810190506101b4565b50505050905090810190601f1680156101fc5780820380516001836020036101000a031916815260200191505b5094505050505060405180910390f35b341561021757600080fd5b61022d60048080359060200190919050506105b8565b6040518080602001838152602001828103825284818151815260200191508051906020019080838360005b83811015610273578082015181840152602081019050610258565b50505050905090810190601f1680156102a05780820380516001836020036101000a031916815260200191505b50935050505060405180910390f35b34156102ba57600080fd5b6102c261068f565b6040518082815260200191505060405180910390f35b6102e0610699565b005b34156102ed57600080fd5b61033d600480803590602001908201803590602001908080601f0160208091040260200160405190810160405280939291908181526020018383808284378201915050505050509190505061069b565b6040518082815260200191505060405180910390f35b6000600260009054906101000a900473ffffffffffffffffffffffffffffffffffffffff16905090565b60003073ffffffffffffffffffffffffffffffffffffffff1631905090565b600260009054906101000a900473ffffffffffffffffffffffffffffffffffffffff1673ffffffffffffffffffffffffffffffffffffffff163373ffffffffffffffffffffffffffffffffffffffff161415156103f857600080fd5b8173ffffffffffffffffffffffffffffffffffffffff166108fc829081150290604051600060405180830381858888f19350505050151561043857600080fd5b5050565b600260009054906101000a900473ffffffffffffffffffffffffffffffffffffffff1673ffffffffffffffffffffffffffffffffffffffff163373ffffffffffffffffffffffffffffffffffffffff1614151561049857600080fd5b600260009054906101000a900473ffffffffffffffffffffffffffffffffffffffff1673ffffffffffffffffffffffffffffffffffffffff16ff5b6104db61076f565b600080600080600180540381526020019081526020016000206001018054600181600116156101000203166002900480601f01602080910402602001604051908101604052809291908181526020018280546001816001161561010002031660029004801561058b5780601f106105605761010080835404028352916020019161058b565b820191906000526020600020905b81548152906001019060200180831161056e57829003601f168201915b50505050509250600080600180540381526020019081526020016000206000015491506001549050909192565b6105c061076f565b60008060008481526020019081526020016000206001018054600181600116156101000203166002900480601f01602080910402602001604051908101604052809291908181526020018280546001816001161561010002031660029004801561066b5780601f106106405761010080835404028352916020019161066b565b820191906000526020600020905b81548152906001019060200180831161064e57829003601f168201915b50505050509150600080848152602001908152602001600020600001549050915091565b6000600154905090565b565b6000600260009054906101000a900473ffffffffffffffffffffffffffffffffffffffff1673ffffffffffffffffffffffffffffffffffffffff163373ffffffffffffffffffffffffffffffffffffffff161415156106f957600080fd5b8160a081511115151561070b57600080fd5b426000806001548152602001908152602001600020600001819055508260008060015481526020019081526020016000206001019080519060200190610752929190610783565b506001600081548092919060010191905055506000915050919050565b602060405190810160405280600081525090565b828054600181600116156101000203166002900490600052602060002090601f016020900481019282601f106107c457805160ff19168380011785556107f2565b828001600101855582156107f2579182015b828111156107f15782518255916020019190600101906107d6565b5b5090506107ff9190610803565b5090565b61082591905b80821115610821576000816000905550600101610809565b5090565b905600a165627a7a72305820aa5a81b3e9fa4f063adc4a86ad7499cd267dc7d9bba6ffb43199414a74198d0a0029a165627a7a72305820428bb38f3cd1ca95f4d10b7e0a330596d1e63eae02bf060596b661cfdf0f2c5e00296060604052341561000f57600080fd5b6040516020806108d883398101604052808051906020019091905050600060018190555080600260006101000a81548173ffffffffffffffffffffffffffffffffffffffff021916908373ffffffffffffffffffffffffffffffffffffffff16021790555050610854806100846000396000f300606060405260043610610099576000357c0100000000000000000000000000000000000000000000000000000000900463ffffffff1680630c4f65bd1461009b57806312065fe0146100f057806315379a72146101195780633e450fff1461015b578063ae978f0814610170578063c3ad5ecb1461020c578063ca7dc5b1146102af578063d917deb5146102d8578063fb46d4c5146102e2575b005b34156100a657600080fd5b6100ae610353565b604051808273ffffffffffffffffffffffffffffffffffffffff1673ffffffffffffffffffffffffffffffffffffffff16815260200191505060405180910390f35b34156100fb57600080fd5b61010361037d565b6040518082815260200191505060405180910390f35b341561012457600080fd5b610159600480803573ffffffffffffffffffffffffffffffffffffffff1690602001909190803590602001909190505061039c565b005b341561016657600080fd5b61016e61043c565b005b341561017b57600080fd5b6101836104d3565b6040518080602001848152602001838152602001828103825285818151815260200191508051906020019080838360005b838110156101cf5780820151818401526020810190506101b4565b50505050905090810190601f1680156101fc5780820380516001836020036101000a031916815260200191505b5094505050505060405180910390f35b341561021757600080fd5b61022d60048080359060200190919050506105b8565b6040518080602001838152602001828103825284818151815260200191508051906020019080838360005b83811015610273578082015181840152602081019050610258565b50505050905090810190601f1680156102a05780820380516001836020036101000a031916815260200191505b50935050505060405180910390f35b34156102ba57600080fd5b6102c261068f565b6040518082815260200191505060405180910390f35b6102e0610699565b005b34156102ed57600080fd5b61033d600480803590602001908201803590602001908080601f0160208091040260200160405190810160405280939291908181526020018383808284378201915050505050509190505061069b565b6040518082815260200191505060405180910390f35b6000600260009054906101000a900473ffffffffffffffffffffffffffffffffffffffff16905090565b60003073ffffffffffffffffffffffffffffffffffffffff1631905090565b600260009054906101000a900473ffffffffffffffffffffffffffffffffffffffff1673ffffffffffffffffffffffffffffffffffffffff163373ffffffffffffffffffffffffffffffffffffffff161415156103f857600080fd5b8173ffffffffffffffffffffffffffffffffffffffff166108fc829081150290604051600060405180830381858888f19350505050151561043857600080fd5b5050565b600260009054906101000a900473ffffffffffffffffffffffffffffffffffffffff1673ffffffffffffffffffffffffffffffffffffffff163373ffffffffffffffffffffffffffffffffffffffff1614151561049857600080fd5b600260009054906101000a900473ffffffffffffffffffffffffffffffffffffffff1673ffffffffffffffffffffffffffffffffffffffff16ff5b6104db61076f565b600080600080600180540381526020019081526020016000206001018054600181600116156101000203166002900480601f01602080910402602001604051908101604052809291908181526020018280546001816001161561010002031660029004801561058b5780601f106105605761010080835404028352916020019161058b565b820191906000526020600020905b81548152906001019060200180831161056e57829003601f168201915b50505050509250600080600180540381526020019081526020016000206000015491506001549050909192565b6105c061076f565b60008060008481526020019081526020016000206001018054600181600116156101000203166002900480601f01602080910402602001604051908101604052809291908181526020018280546001816001161561010002031660029004801561066b5780601f106106405761010080835404028352916020019161066b565b820191906000526020600020905b81548152906001019060200180831161064e57829003601f168201915b50505050509150600080848152602001908152602001600020600001549050915091565b6000600154905090565b565b6000600260009054906101000a900473ffffffffffffffffffffffffffffffffffffffff1673ffffffffffffffffffffffffffffffffffffffff163373ffffffffffffffffffffffffffffffffffffffff161415156106f957600080fd5b8160a081511115151561070b57600080fd5b426000806001548152602001908152602001600020600001819055508260008060015481526020019081526020016000206001019080519060200190610752929190610783565b506001600081548092919060010191905055506000915050919050565b602060405190810160405280600081525090565b828054600181600116156101000203166002900490600052602060002090601f016020900481019282601f106107c457805160ff19168380011785556107f2565b828001600101855582156107f2579182015b828111156107f15782518255916020019190600101906107d6565b5b5090506107ff9190610803565b5090565b61082591905b80821115610821576000816000905550600101610809565b5090565b905600a165627a7a72305820aa5a81b3e9fa4f063adc4a86ad7499cd267dc7d9bba6ffb43199414a74198d0a0029",
  "source": "/*\ndecentralized microblogging \nCopyright (C) 2015 Jahn Bertsch\n\nThis program is free software: you can redistribute it and/or modify\nit under the terms of the GNU General Public License as published by\nthe Free Software Foundation in version 3.\n\nThis program is distributed in the hope that it will be useful,\nbut WITHOUT ANY WARRANTY; without even the implied warranty of\nMERCHANTABILITY or FITNESS FOR A PARTICULAR PURPOSE.  See the\nGNU General Public License for more details.\n\nYou should have received a copy of the GNU General Public License\nalong with this program.  If not, see <http://www.gnu.org/licenses/>.\n*/\n\n// \"class\" TweetRegistry\npragma solidity ^0.4.4;\nimport \"./TweetAccount.sol\";\ncontract TweetRegistry {\n\t\tstruct AccountInfo{ \n\t\tstring name;\n\t\taddress contractAddress;\n\t}\n\t// mappings to look up account names, account ids and addresses\n\tmapping (address => AccountInfo) _addressToAccountInfo;\n\tmapping (uint => address) _accountIdToAccountAddress;\n\tmapping (string => address) _accountNameToAddress;\n\n\n\t\n\t// might be interesting to see how many people use the system\n\tuint _numberOfAccounts;\n\t\n\t// owner\n\taddress _registryAdmin;\n\t\n\t// allowed to administrate accounts only, not everything\n\taddress _accountAdmin;\n\t\n\t// if a newer version of this registry is available, force users to use it\n\tbool _registrationDisabled;\n\n\tfunction TweetRegistry(string name) {\n\t\t_registryAdmin = msg.sender;\n\t\t_accountAdmin = msg.sender; // can be changed later\n\t\t_numberOfAccounts = 0;\n\t\t_registrationDisabled = false;\n\t\t \t AccountInfo memory newAccount;\n\t\t\t TweetAccount newTweep =new TweetAccount(msg.sender);\n\t\t\t _addressToAccountInfo[msg.sender];\n            newAccount.name =name ;\n            newAccount.contractAddress=newTweep;\n        \t_accountNameToAddress[name] = msg.sender ;\n\t\t\t_accountIdToAccountAddress[_numberOfAccounts] = msg.sender ;\n\t\t\t_numberOfAccounts++;\n\n            _addressToAccountInfo[msg.sender]=newAccount;\n\t\t\t\n\t}\n    modifier RegistrationDisabled(){\n\t\trequire(!_registrationDisabled);\n        _;\n    }\n    modifier IsRegistered(){\n\t\trequire(bytes(_addressToAccountInfo[msg.sender].name).length == 0);\n        _;\n    }\n    modifier IsTaken(string name){\n\t\trequire(_accountNameToAddress[name] == address(0));\n        _;\n    }\n    modifier ValidName(string name){\n\t\trequire(bytes(name).length <= 64);\n        _;\n    }\n    modifier IsAdmin(){\n\t\trequire(msg.sender == _registryAdmin);\n        _;\n    }\n    modifier IsAccountAdmin(){\n\t\trequire(msg.sender == _accountAdmin);\n        _;\n    }\n\n\tfunction register(string name) public RegistrationDisabled IsRegistered ValidName(name) IsTaken(name) returns (int result) {\n\t\n \t\t\t  AccountInfo memory newAccount;\n\t\t\t TweetAccount newTweep =new TweetAccount(msg.sender);\n\t\t\t _addressToAccountInfo[msg.sender];\n            newAccount.name =name ;\n            newAccount.contractAddress=newTweep;\n        \t_accountNameToAddress[name] = msg.sender ;\n\t\t\t_accountIdToAccountAddress[_numberOfAccounts] = msg.sender ;\n\t\t\t_numberOfAccounts++;\n\n            _addressToAccountInfo[msg.sender]=newAccount;\n\t\t\t\n\t\t\tresult = 0; // success\n\t\t}\n\t\n\t\n\tfunction getNumberOfAccounts()public constant returns (uint numberOfAccounts) {\n\t\tnumberOfAccounts = _numberOfAccounts;\n\t}\n\n\tfunction getAddressOfName(string name)public constant returns (address addr) {\n\t\taddr = _accountNameToAddress[name];\n\t}\n\n\tfunction getNameOfAddress(address addr)public constant returns (string name) {\n\t\tname = _addressToAccountInfo[addr].name;\n\t}\n\tfunction getAccountOfAddress(address addr) public constant returns (address , string ) {\n\t\treturn (_addressToAccountInfo[addr].contractAddress,_addressToAccountInfo[addr].name);\n\t}\n\t\n\tfunction getAddressOfId(uint id) public constant returns (address addr) {\n\t\taddr = _accountIdToAccountAddress[id];\n\t}\n\n\tfunction unregister() public IsRegistered returns (string unregisteredAccountName) {\n\t\tunregisteredAccountName = _addressToAccountInfo[msg.sender].name;\n\t\t_addressToAccountInfo[msg.sender].name = \"\";\n\t\t_accountNameToAddress[unregisteredAccountName] = address(0);\n\t\t// _accountIdToAccountAddress is never deleted on purpose\n\t}\n\t\n\tfunction adminUnregister(string name) public IsAdmin IsAccountAdmin {\n\t\taddress addr = _accountNameToAddress[name];\n\t\t\t_addressToAccountInfo[addr].name = \"\";\n\t\t\t_accountNameToAddress[name] = address(0);\n\t\t\t// _accountIdToAccountAddress is never deleted on purpose\n\t}\n\t\n\tfunction adminSetRegistrationDisabled(bool registrationDisabled) public IsAdmin  {\n\t\t// currently, the code of the registry can not be updated once it is\n\t\t// deployed. if a newer version of the registry is available, account\n\t\t// registration can be disabled\n\t\t\t\t_registrationDisabled = registrationDisabled;\n\n\t}\n\t\n\tfunction adminSetAccountAdministrator(address accountAdmin)  public IsAdmin {\n\t\t\t\t_accountAdmin = accountAdmin;\n\n\t}\n\t// donate to the admin \n\t\tfunction Donate() public payable {\n\n\t}\n\n\t\n\tfunction adminRetrieveDonations(address to , uint amount) public IsAdmin {\n\t\t\tto.transfer(amount);\n\t\t\n\t}\n\t\t\t\n\tfunction adminDeleteRegistry() public IsAdmin {\n\t\t\tselfdestruct(_registryAdmin); // this is a predefined function, it deletes the contract and returns all funds to the admin's address\n\t\t\n\t}\n\t\t\tfunction () public payable {\n\n\t}\n\t\tfunction getBalance() public IsAdmin constant returns (uint ) {\n\t\treturn this.balance;\n\t}\n}",
  "sourcePath": "/home/eherrawy/bootCamp/eth-tweet/angular4-truffle-starter-dapp/contracts/TweetRegistry.sol",
  "compiler": {
    "name": "solc",
    "version": "0.4.19+commit.c4cbbb05.Emscripten.clang"
  },
  "schemaVersion": "2.0.0",
  "updatedAt": "2018-03-24T11:08:10.015Z"
}