{
  "contractName": "TweetAccount",
  "abi": [
    {
      "inputs": [
        {
          "name": "owner",
          "type": "address"
        }
      ],
      "payable": false,
      "stateMutability": "nonpayable",
      "type": "constructor"
    },
    {
      "payable": true,
      "stateMutability": "payable",
      "type": "fallback"
    },
    {
      "constant": false,
      "inputs": [
        {
          "name": "tweetString",
          "type": "string"
        }
      ],
      "name": "tweet",
      "outputs": [
        {
          "name": "result",
          "type": "int256"
        }
      ],
      "payable": false,
      "stateMutability": "nonpayable",
      "type": "function"
    },
    {
      "constant": true,
      "inputs": [
        {
          "name": "tweetId",
          "type": "uint256"
        }
      ],
      "name": "getTweet",
      "outputs": [
        {
          "name": "tweetString",
          "type": "string"
        },
        {
          "name": "timestamp",
          "type": "uint256"
        }
      ],
      "payable": false,
      "stateMutability": "view",
      "type": "function"
    },
    {
      "constant": true,
      "inputs": [],
      "name": "getLatestTweet",
      "outputs": [
        {
          "name": "tweetString",
          "type": "string"
        },
        {
          "name": "timestamp",
          "type": "uint256"
        },
        {
          "name": "numberOfTweets",
          "type": "uint256"
        }
      ],
      "payable": false,
      "stateMutability": "view",
      "type": "function"
    },
    {
      "constant": true,
      "inputs": [],
      "name": "getOwnerAddress",
      "outputs": [
        {
          "name": "adminAddress",
          "type": "address"
        }
      ],
      "payable": false,
      "stateMutability": "view",
      "type": "function"
    },
    {
      "constant": true,
      "inputs": [],
      "name": "getNumberOfTweets",
      "outputs": [
        {
          "name": "numberOfTweets",
          "type": "uint256"
        }
      ],
      "payable": false,
      "stateMutability": "view",
      "type": "function"
    },
    {
      "constant": false,
      "inputs": [],
      "name": "Donate",
      "outputs": [],
      "payable": true,
      "stateMutability": "payable",
      "type": "function"
    },
    {
      "constant": false,
      "inputs": [
        {
          "name": "to",
          "type": "address"
        },
        {
          "name": "amount",
          "type": "uint256"
        }
      ],
      "name": "adminRetrieveDonations",
      "outputs": [],
      "payable": false,
      "stateMutability": "nonpayable",
      "type": "function"
    },
    {
      "constant": false,
      "inputs": [],
      "name": "adminDeleteAccount",
      "outputs": [],
      "payable": false,
      "stateMutability": "nonpayable",
      "type": "function"
    },
    {
      "constant": true,
      "inputs": [],
      "name": "getBalance",
      "outputs": [
        {
          "name": "",
          "type": "uint256"
        }
      ],
      "payable": false,
      "stateMutability": "view",
      "type": "function"
    }
  ],
  "bytecode": "0x6060604052341561000f57600080fd5b6040516020806108d883398101604052808051906020019091905050600060018190555080600260006101000a81548173ffffffffffffffffffffffffffffffffffffffff021916908373ffffffffffffffffffffffffffffffffffffffff16021790555050610854806100846000396000f300606060405260043610610099576000357c0100000000000000000000000000000000000000000000000000000000900463ffffffff1680630c4f65bd1461009b57806312065fe0146100f057806315379a72146101195780633e450fff1461015b578063ae978f0814610170578063c3ad5ecb1461020c578063ca7dc5b1146102af578063d917deb5146102d8578063fb46d4c5146102e2575b005b34156100a657600080fd5b6100ae610353565b604051808273ffffffffffffffffffffffffffffffffffffffff1673ffffffffffffffffffffffffffffffffffffffff16815260200191505060405180910390f35b34156100fb57600080fd5b61010361037d565b6040518082815260200191505060405180910390f35b341561012457600080fd5b610159600480803573ffffffffffffffffffffffffffffffffffffffff1690602001909190803590602001909190505061039c565b005b341561016657600080fd5b61016e61043c565b005b341561017b57600080fd5b6101836104d3565b6040518080602001848152602001838152602001828103825285818151815260200191508051906020019080838360005b838110156101cf5780820151818401526020810190506101b4565b50505050905090810190601f1680156101fc5780820380516001836020036101000a031916815260200191505b5094505050505060405180910390f35b341561021757600080fd5b61022d60048080359060200190919050506105b8565b6040518080602001838152602001828103825284818151815260200191508051906020019080838360005b83811015610273578082015181840152602081019050610258565b50505050905090810190601f1680156102a05780820380516001836020036101000a031916815260200191505b50935050505060405180910390f35b34156102ba57600080fd5b6102c261068f565b6040518082815260200191505060405180910390f35b6102e0610699565b005b34156102ed57600080fd5b61033d600480803590602001908201803590602001908080601f0160208091040260200160405190810160405280939291908181526020018383808284378201915050505050509190505061069b565b6040518082815260200191505060405180910390f35b6000600260009054906101000a900473ffffffffffffffffffffffffffffffffffffffff16905090565b60003073ffffffffffffffffffffffffffffffffffffffff1631905090565b600260009054906101000a900473ffffffffffffffffffffffffffffffffffffffff1673ffffffffffffffffffffffffffffffffffffffff163373ffffffffffffffffffffffffffffffffffffffff161415156103f857600080fd5b8173ffffffffffffffffffffffffffffffffffffffff166108fc829081150290604051600060405180830381858888f19350505050151561043857600080fd5b5050565b600260009054906101000a900473ffffffffffffffffffffffffffffffffffffffff1673ffffffffffffffffffffffffffffffffffffffff163373ffffffffffffffffffffffffffffffffffffffff1614151561049857600080fd5b600260009054906101000a900473ffffffffffffffffffffffffffffffffffffffff1673ffffffffffffffffffffffffffffffffffffffff16ff5b6104db61076f565b600080600080600180540381526020019081526020016000206001018054600181600116156101000203166002900480601f01602080910402602001604051908101604052809291908181526020018280546001816001161561010002031660029004801561058b5780601f106105605761010080835404028352916020019161058b565b820191906000526020600020905b81548152906001019060200180831161056e57829003601f168201915b50505050509250600080600180540381526020019081526020016000206000015491506001549050909192565b6105c061076f565b60008060008481526020019081526020016000206001018054600181600116156101000203166002900480601f01602080910402602001604051908101604052809291908181526020018280546001816001161561010002031660029004801561066b5780601f106106405761010080835404028352916020019161066b565b820191906000526020600020905b81548152906001019060200180831161064e57829003601f168201915b50505050509150600080848152602001908152602001600020600001549050915091565b6000600154905090565b565b6000600260009054906101000a900473ffffffffffffffffffffffffffffffffffffffff1673ffffffffffffffffffffffffffffffffffffffff163373ffffffffffffffffffffffffffffffffffffffff161415156106f957600080fd5b8160a081511115151561070b57600080fd5b426000806001548152602001908152602001600020600001819055508260008060015481526020019081526020016000206001019080519060200190610752929190610783565b506001600081548092919060010191905055506000915050919050565b602060405190810160405280600081525090565b828054600181600116156101000203166002900490600052602060002090601f016020900481019282601f106107c457805160ff19168380011785556107f2565b828001600101855582156107f2579182015b828111156107f15782518255916020019190600101906107d6565b5b5090506107ff9190610803565b5090565b61082591905b80821115610821576000816000905550600101610809565b5090565b905600a165627a7a72305820aa5a81b3e9fa4f063adc4a86ad7499cd267dc7d9bba6ffb43199414a74198d0a0029",
  "source": "/*\ndecentralized microblogging \nCopyright (C) 2015 Jahn Bertsch\n\nThis program is free software: you can redistribute it and/or modify\nit under the terms of the GNU General Public License as published by\nthe Free Software Foundation in version 3.\n\nThis program is distributed in the hope that it will be useful,\nbut WITHOUT ANY WARRANTY; without even the implied warranty of\nMERCHANTABILITY or FITNESS FOR A PARTICULAR PURPOSE.  See the\nGNU General Public License for more details.\n\nYou should have received a copy of the GNU General Public License\nalong with this program.  If not, see <http://www.gnu.org/licenses/>.\n*/\n\n// \"class\" TweetAccount\npragma solidity ^0.4.4;\n\ncontract TweetAccount {\n\t\n\t// data structure of a single tweet\n\tstruct Tweet {\n\t\tuint timestamp;\n\t\tstring tweetString;\n\t}\n\t\n\t// \"array\" of all tweets of this account: maps the tweet id to the actual tweet\n\tmapping (uint => Tweet) _tweets;\n\t\n\t// total number of tweets in the above _tweets mapping\n\tuint _numberOfTweets;\n\t\n\t// \"owner\" of this account: only admin is allowed to tweet\n\taddress _adminAddress;\n\t    modifier IsAdmin(){\n\t\trequire(msg.sender == _adminAddress);\n        _;\n    }\n\t    modifier isValidTweet(string tweetString){\n\t\trequire(bytes(tweetString).length <= 160);\n        _;\n    }\n\t// constructor\n\tfunction TweetAccount( address owner) {\n\t\t_numberOfTweets = 0;\n\t\t_adminAddress = owner;\n\t}\n\t\n\t\n\t// // returns true if caller of function (\"sender\") is admin\n\t// function isAdmin() constant returns (bool isAdmin) {\n\t// \treturn msg.sender == _adminAddress;\n\t// }\n\t\n\t// create new tweet\n\tfunction tweet(string tweetString) public IsAdmin isValidTweet(tweetString) returns (int result) {\n\n\n\t\t\t_tweets[_numberOfTweets].timestamp = now;\n\t\t\t_tweets[_numberOfTweets].tweetString = tweetString;\n\t\t\t_numberOfTweets++;\n\t\t\tresult = 0; // success\n\t}\n\t\n\tfunction getTweet(uint tweetId)public constant returns (string tweetString, uint timestamp) {\n\t\t// returns two values\n\t\ttweetString = _tweets[tweetId].tweetString;\n\t\ttimestamp = _tweets[tweetId].timestamp;\n\t}\n\t\n\tfunction getLatestTweet()public constant returns (string tweetString, uint timestamp, uint numberOfTweets) {\n\t\t// returns three values\n\t\ttweetString = _tweets[_numberOfTweets - 1].tweetString;\n\t\ttimestamp = _tweets[_numberOfTweets - 1].timestamp;\n\t\tnumberOfTweets = _numberOfTweets;\n\t}\n\t\n\tfunction getOwnerAddress()public constant returns (address adminAddress) {\n\t\treturn _adminAddress;\n\t}\n\t\n\tfunction getNumberOfTweets() public constant returns (uint numberOfTweets) {\n\t\treturn _numberOfTweets;\n\t}\n\n\tfunction Donate() public payable {\n\n\t}\n\t\t// other users can send donations to your account: use this function for donation withdrawal\n\n\tfunction adminRetrieveDonations(address to ,uint amount) public  IsAdmin{\n\t\t\t\t\tto.transfer(amount);\n\n\t}\n\t\n\tfunction adminDeleteAccount()  public IsAdmin{\n\t\t\t\t\tselfdestruct(_adminAddress); // this is a predefined function, it deletes the contract and returns all funds to the owner's address\n\n\t}\t\n\t\t\tfunction () public payable {\n\n\t}\n\t\tfunction getBalance()public /*IsAdmin*/ constant returns (uint ) {\n\t\treturn this.balance;\n\t}\n}\n",
  "sourcePath": "/home/eherrawy/bootCamp/eth-tweet/angular4-truffle-starter-dapp/contracts/TweetAccount.sol",
  "compiler": {
    "name": "solc",
    "version": "0.4.19+commit.c4cbbb05.Emscripten.clang"
  },
  "schemaVersion": "2.0.0",
  "updatedAt": "2018-03-24T11:08:10.012Z"
}